{
  "_format": "hh-sol-artifact-1",
  "contractName": "BuyMeACoffee",
  "sourceName": "contracts/BuyMeACoffee.sol",
  "abi": [
    {
      "anonymous": false,
      "inputs": [
        {
          "indexed": true,
          "internalType": "address",
          "name": "from",
          "type": "address"
        },
        {
          "indexed": false,
          "internalType": "uint256",
          "name": "timestamp",
          "type": "uint256"
        },
        {
          "indexed": false,
          "internalType": "string",
          "name": "name",
          "type": "string"
        },
        {
          "indexed": false,
          "internalType": "string",
          "name": "message",
          "type": "string"
        }
      ],
      "name": "NewMemo",
      "type": "event"
    },
    {
      "anonymous": false,
      "inputs": [
        {
          "indexed": true,
          "internalType": "address",
          "name": "previousOwner",
          "type": "address"
        },
        {
          "indexed": true,
          "internalType": "address",
          "name": "newOwner",
          "type": "address"
        }
      ],
      "name": "OwnershipTransferred",
      "type": "event"
    },
    {
      "inputs": [
        {
          "internalType": "string",
          "name": "_name",
          "type": "string"
        },
        {
          "internalType": "string",
          "name": "_message",
          "type": "string"
        }
      ],
      "name": "buyCoffee",
      "outputs": [],
      "stateMutability": "payable",
      "type": "function"
    },
    {
      "inputs": [],
      "name": "getMemos",
      "outputs": [
        {
          "components": [
            {
              "internalType": "address",
              "name": "from",
              "type": "address"
            },
            {
              "internalType": "uint256",
              "name": "timestamp",
              "type": "uint256"
            },
            {
              "internalType": "string",
              "name": "name",
              "type": "string"
            },
            {
              "internalType": "string",
              "name": "message",
              "type": "string"
            }
          ],
          "internalType": "struct BuyMeACoffee.Memo[]",
          "name": "",
          "type": "tuple[]"
        }
      ],
      "stateMutability": "view",
      "type": "function"
    },
    {
      "inputs": [],
      "name": "owner",
      "outputs": [
        {
          "internalType": "address",
          "name": "",
          "type": "address"
        }
      ],
      "stateMutability": "view",
      "type": "function"
    },
    {
      "inputs": [],
      "name": "renounceOwnership",
      "outputs": [],
      "stateMutability": "nonpayable",
      "type": "function"
    },
    {
      "inputs": [
        {
          "internalType": "address",
          "name": "newOwner",
          "type": "address"
        }
      ],
      "name": "transferOwnership",
      "outputs": [],
      "stateMutability": "nonpayable",
      "type": "function"
    },
    {
      "inputs": [],
      "name": "withdrawTips",
      "outputs": [],
      "stateMutability": "payable",
      "type": "function"
    }
  ],
  "bytecode": "0x608060405234801561001057600080fd5b5061002d61002261003260201b60201c565b61003a60201b60201c565b6100fe565b600033905090565b60008060009054906101000a900473ffffffffffffffffffffffffffffffffffffffff169050816000806101000a81548173ffffffffffffffffffffffffffffffffffffffff021916908373ffffffffffffffffffffffffffffffffffffffff1602179055508173ffffffffffffffffffffffffffffffffffffffff168173ffffffffffffffffffffffffffffffffffffffff167f8be0079c531659141344cd1fd0a4f28419497f9722a3daafe3b4186f6b6457e060405160405180910390a35050565b6111008061010d6000396000f3fe6080604052600436106100555760003560e01c8063204206e11461005a5780633aaa74b214610076578063715018a614610080578063865c5172146100975780638da5cb5b146100c2578063f2fde38b146100ed575b600080fd5b610074600480360381019061006f9190610856565b610116565b005b61007e610291565b005b34801561008c57600080fd5b5061009561030f565b005b3480156100a357600080fd5b506100ac610323565b6040516100b99190610ad3565b60405180910390f35b3480156100ce57600080fd5b506100d7610506565b6040516100e49190610b04565b60405180910390f35b3480156100f957600080fd5b50610114600480360381019061010f9190610b4b565b61052f565b005b600034101561015a576040517f08c379a000000000000000000000000000000000000000000000000000000000815260040161015190610bd5565b60405180910390fd5b600160405180608001604052803373ffffffffffffffffffffffffffffffffffffffff16815260200142815260200184815260200183815250908060018154018082558091505060019003906000526020600020906004020160009091909190915060008201518160000160006101000a81548173ffffffffffffffffffffffffffffffffffffffff021916908373ffffffffffffffffffffffffffffffffffffffff1602179055506020820151816001015560408201518160020190816102229190610e01565b5060608201518160030190816102389190610e01565b5050503373ffffffffffffffffffffffffffffffffffffffff167fc56140e05f516509ae28110e0f72e17558a7561630dad2647c3ae87d986e365c42848460405161028593929190610f1b565b60405180910390a25050565b6102996105b2565b3373ffffffffffffffffffffffffffffffffffffffff166108fc479081150290604051600060405180830381858888f1935050505061030d576040517f08c379a000000000000000000000000000000000000000000000000000000000815260040161030490610fac565b60405180910390fd5b565b6103176105b2565b6103216000610630565b565b60606001805480602002602001604051908101604052809291908181526020016000905b828210156104fd57838290600052602060002090600402016040518060800160405290816000820160009054906101000a900473ffffffffffffffffffffffffffffffffffffffff1673ffffffffffffffffffffffffffffffffffffffff1673ffffffffffffffffffffffffffffffffffffffff168152602001600182015481526020016002820180546103da90610c24565b80601f016020809104026020016040519081016040528092919081815260200182805461040690610c24565b80156104535780601f1061042857610100808354040283529160200191610453565b820191906000526020600020905b81548152906001019060200180831161043657829003601f168201915b5050505050815260200160038201805461046c90610c24565b80601f016020809104026020016040519081016040528092919081815260200182805461049890610c24565b80156104e55780601f106104ba576101008083540402835291602001916104e5565b820191906000526020600020905b8154815290600101906020018083116104c857829003601f168201915b50505050508152505081526020019060010190610347565b50505050905090565b60008060009054906101000a900473ffffffffffffffffffffffffffffffffffffffff16905090565b6105376105b2565b600073ffffffffffffffffffffffffffffffffffffffff168173ffffffffffffffffffffffffffffffffffffffff16036105a6576040517f08c379a000000000000000000000000000000000000000000000000000000000815260040161059d9061103e565b60405180910390fd5b6105af81610630565b50565b6105ba6106f4565b73ffffffffffffffffffffffffffffffffffffffff166105d8610506565b73ffffffffffffffffffffffffffffffffffffffff161461062e576040517f08c379a0000000000000000000000000000000000000000000000000000000008152600401610625906110aa565b60405180910390fd5b565b60008060009054906101000a900473ffffffffffffffffffffffffffffffffffffffff169050816000806101000a81548173ffffffffffffffffffffffffffffffffffffffff021916908373ffffffffffffffffffffffffffffffffffffffff1602179055508173ffffffffffffffffffffffffffffffffffffffff168173ffffffffffffffffffffffffffffffffffffffff167f8be0079c531659141344cd1fd0a4f28419497f9722a3daafe3b4186f6b6457e060405160405180910390a35050565b600033905090565b6000604051905090565b600080fd5b600080fd5b600080fd5b600080fd5b6000601f19601f8301169050919050565b7f4e487b7100000000000000000000000000000000000000000000000000000000600052604160045260246000fd5b6107638261071a565b810181811067ffffffffffffffff821117156107825761078161072b565b5b80604052505050565b60006107956106fc565b90506107a1828261075a565b919050565b600067ffffffffffffffff8211156107c1576107c061072b565b5b6107ca8261071a565b9050602081019050919050565b82818337600083830152505050565b60006107f96107f4846107a6565b61078b565b90508281526020810184848401111561081557610814610715565b5b6108208482856107d7565b509392505050565b600082601f83011261083d5761083c610710565b5b813561084d8482602086016107e6565b91505092915050565b6000806040838503121561086d5761086c610706565b5b600083013567ffffffffffffffff81111561088b5761088a61070b565b5b61089785828601610828565b925050602083013567ffffffffffffffff8111156108b8576108b761070b565b5b6108c485828601610828565b9150509250929050565b600081519050919050565b600082825260208201905092915050565b6000819050602082019050919050565b600073ffffffffffffffffffffffffffffffffffffffff82169050919050565b6000610925826108fa565b9050919050565b6109358161091a565b82525050565b6000819050919050565b61094e8161093b565b82525050565b600081519050919050565b600082825260208201905092915050565b60005b8381101561098e578082015181840152602081019050610973565b60008484015250505050565b60006109a582610954565b6109af818561095f565b93506109bf818560208601610970565b6109c88161071a565b840191505092915050565b60006080830160008301516109eb600086018261092c565b5060208301516109fe6020860182610945565b5060408301518482036040860152610a16828261099a565b91505060608301518482036060860152610a30828261099a565b9150508091505092915050565b6000610a4983836109d3565b905092915050565b6000602082019050919050565b6000610a69826108ce565b610a7381856108d9565b935083602082028501610a85856108ea565b8060005b85811015610ac15784840389528151610aa28582610a3d565b9450610aad83610a51565b925060208a01995050600181019050610a89565b50829750879550505050505092915050565b60006020820190508181036000830152610aed8184610a5e565b905092915050565b610afe8161091a565b82525050565b6000602082019050610b196000830184610af5565b92915050565b610b288161091a565b8114610b3357600080fd5b50565b600081359050610b4581610b1f565b92915050565b600060208284031215610b6157610b60610706565b5b6000610b6f84828501610b36565b91505092915050565b600082825260208201905092915050565b7f63616e27742062757920636f6666656520666f72206672656500000000000000600082015250565b6000610bbf601983610b78565b9150610bca82610b89565b602082019050919050565b60006020820190508181036000830152610bee81610bb2565b9050919050565b7f4e487b7100000000000000000000000000000000000000000000000000000000600052602260045260246000fd5b60006002820490506001821680610c3c57607f821691505b602082108103610c4f57610c4e610bf5565b5b50919050565b60008190508160005260206000209050919050565b60006020601f8301049050919050565b600082821b905092915050565b600060088302610cb77fffffffffffffffffffffffffffffffffffffffffffffffffffffffffffffffff82610c7a565b610cc18683610c7a565b95508019841693508086168417925050509392505050565b6000819050919050565b6000610cfe610cf9610cf48461093b565b610cd9565b61093b565b9050919050565b6000819050919050565b610d1883610ce3565b610d2c610d2482610d05565b848454610c87565b825550505050565b600090565b610d41610d34565b610d4c818484610d0f565b505050565b5b81811015610d7057610d65600082610d39565b600181019050610d52565b5050565b601f821115610db557610d8681610c55565b610d8f84610c6a565b81016020851015610d9e578190505b610db2610daa85610c6a565b830182610d51565b50505b505050565b600082821c905092915050565b6000610dd860001984600802610dba565b1980831691505092915050565b6000610df18383610dc7565b9150826002028217905092915050565b610e0a82610954565b67ffffffffffffffff811115610e2357610e2261072b565b5b610e2d8254610c24565b610e38828285610d74565b600060209050601f831160018114610e6b5760008415610e59578287015190505b610e638582610de5565b865550610ecb565b601f198416610e7986610c55565b60005b82811015610ea157848901518255600182019150602085019450602081019050610e7c565b86831015610ebe5784890151610eba601f891682610dc7565b8355505b6001600288020188555050505b505050505050565b610edc8161093b565b82525050565b6000610eed82610954565b610ef78185610b78565b9350610f07818560208601610970565b610f108161071a565b840191505092915050565b6000606082019050610f306000830186610ed3565b8181036020830152610f428185610ee2565b90508181036040830152610f568184610ee2565b9050949350505050565b7f5769746864726177616c204661696c6564000000000000000000000000000000600082015250565b6000610f96601183610b78565b9150610fa182610f60565b602082019050919050565b60006020820190508181036000830152610fc581610f89565b9050919050565b7f4f776e61626c653a206e6577206f776e657220697320746865207a65726f206160008201527f6464726573730000000000000000000000000000000000000000000000000000602082015250565b6000611028602683610b78565b915061103382610fcc565b604082019050919050565b600060208201905081810360008301526110578161101b565b9050919050565b7f4f776e61626c653a2063616c6c6572206973206e6f7420746865206f776e6572600082015250565b6000611094602083610b78565b915061109f8261105e565b602082019050919050565b600060208201905081810360008301526110c381611087565b905091905056fea26469706673582212209ad39077706bdfaf2c15338b1564ad8a3f893f6e4c5c4d448ad5bee44c1d920f64736f6c63430008110033",
  "linkReferences": {},
  "deployedLinkReferences": {}
}